{
  "_format": "hh-sol-artifact-1",
  "contractName": "Creative",
  "sourceName": "contracts/Creative.sol",
  "abi": [
    {
      "inputs": [
        {
          "internalType": "contract ISuperfluid",
          "name": "_host",
          "type": "address"
        },
        {
          "internalType": "contract IConstantFlowAgreementV1",
          "name": "_cfa",
          "type": "address"
        },
        {
          "internalType": "contract IInstantDistributionAgreementV1",
          "name": "_ida",
          "type": "address"
        },
        {
          "internalType": "address",
          "name": "_streamToken",
          "type": "address"
        },
        {
          "internalType": "address",
          "name": "_distToken",
          "type": "address"
        }
      ],
      "stateMutability": "nonpayable",
      "type": "constructor"
    },
    {
      "anonymous": false,
      "inputs": [
        {
          "indexed": true,
          "internalType": "address",
          "name": "previousOwner",
          "type": "address"
        },
        {
          "indexed": true,
          "internalType": "address",
          "name": "newOwner",
          "type": "address"
        }
      ],
      "name": "OwnershipTransferred",
      "type": "event"
    },
    {
      "inputs": [],
      "name": "DIST_INDEX_ID",
      "outputs": [
        {
          "internalType": "uint32",
          "name": "",
          "type": "uint32"
        }
      ],
      "stateMutability": "view",
      "type": "function"
    },
    {
      "inputs": [
        {
          "internalType": "contract ISuperToken",
          "name": "_superToken",
          "type": "address"
        },
        {
          "internalType": "address",
          "name": "_agreementClass",
          "type": "address"
        },
        {
          "internalType": "bytes32",
          "name": "",
          "type": "bytes32"
        },
        {
          "internalType": "bytes",
          "name": "",
          "type": "bytes"
        },
        {
          "internalType": "bytes",
          "name": "",
          "type": "bytes"
        },
        {
          "internalType": "bytes",
          "name": "_ctx",
          "type": "bytes"
        }
      ],
      "name": "afterAgreementCreated",
      "outputs": [
        {
          "internalType": "bytes",
          "name": "_newCtx",
          "type": "bytes"
        }
      ],
      "stateMutability": "nonpayable",
      "type": "function"
    },
    {
      "inputs": [
        {
          "internalType": "contract ISuperToken",
          "name": "_superToken",
          "type": "address"
        },
        {
          "internalType": "address",
          "name": "_agreementClass",
          "type": "address"
        },
        {
          "internalType": "bytes32",
          "name": "",
          "type": "bytes32"
        },
        {
          "internalType": "bytes",
          "name": "",
          "type": "bytes"
        },
        {
          "internalType": "bytes",
          "name": "_cbdata",
          "type": "bytes"
        },
        {
          "internalType": "bytes",
          "name": "_ctx",
          "type": "bytes"
        }
      ],
      "name": "afterAgreementTerminated",
      "outputs": [
        {
          "internalType": "bytes",
          "name": "_newCtx",
          "type": "bytes"
        }
      ],
      "stateMutability": "nonpayable",
      "type": "function"
    },
    {
      "inputs": [
        {
          "internalType": "contract ISuperToken",
          "name": "_superToken",
          "type": "address"
        },
        {
          "internalType": "address",
          "name": "_agreementClass",
          "type": "address"
        },
        {
          "internalType": "bytes32",
          "name": "",
          "type": "bytes32"
        },
        {
          "internalType": "bytes",
          "name": "",
          "type": "bytes"
        },
        {
          "internalType": "bytes",
          "name": "_cbdata",
          "type": "bytes"
        },
        {
          "internalType": "bytes",
          "name": "_ctx",
          "type": "bytes"
        }
      ],
      "name": "afterAgreementUpdated",
      "outputs": [
        {
          "internalType": "bytes",
          "name": "_newCtx",
          "type": "bytes"
        }
      ],
      "stateMutability": "nonpayable",
      "type": "function"
    },
    {
      "inputs": [
        {
          "internalType": "contract ISuperToken",
          "name": "_superToken",
          "type": "address"
        },
        {
          "internalType": "address",
          "name": "_agreementClass",
          "type": "address"
        },
        {
          "internalType": "bytes32",
          "name": "",
          "type": "bytes32"
        },
        {
          "internalType": "bytes",
          "name": "",
          "type": "bytes"
        },
        {
          "internalType": "bytes",
          "name": "",
          "type": "bytes"
        }
      ],
      "name": "beforeAgreementCreated",
      "outputs": [
        {
          "internalType": "bytes",
          "name": "_cbdata",
          "type": "bytes"
        }
      ],
      "stateMutability": "view",
      "type": "function"
    },
    {
      "inputs": [
        {
          "internalType": "contract ISuperToken",
          "name": "_superToken",
          "type": "address"
        },
        {
          "internalType": "address",
          "name": "_agreementClass",
          "type": "address"
        },
        {
          "internalType": "bytes32",
          "name": "",
          "type": "bytes32"
        },
        {
          "internalType": "bytes",
          "name": "",
          "type": "bytes"
        },
        {
          "internalType": "bytes",
          "name": "_ctx",
          "type": "bytes"
        }
      ],
      "name": "beforeAgreementTerminated",
      "outputs": [
        {
          "internalType": "bytes",
          "name": "_cbdata",
          "type": "bytes"
        }
      ],
      "stateMutability": "view",
      "type": "function"
    },
    {
      "inputs": [
        {
          "internalType": "contract ISuperToken",
          "name": "_superToken",
          "type": "address"
        },
        {
          "internalType": "address",
          "name": "_agreementClass",
          "type": "address"
        },
        {
          "internalType": "bytes32",
          "name": "",
          "type": "bytes32"
        },
        {
          "internalType": "bytes",
          "name": "",
          "type": "bytes"
        },
        {
          "internalType": "bytes",
          "name": "_ctx",
          "type": "bytes"
        }
      ],
      "name": "beforeAgreementUpdated",
      "outputs": [
        {
          "internalType": "bytes",
          "name": "_cbdata",
          "type": "bytes"
        }
      ],
      "stateMutability": "view",
      "type": "function"
    },
    {
      "inputs": [
        {
          "internalType": "address",
          "name": "_user",
          "type": "address"
        }
      ],
      "name": "calcUserUninvested",
      "outputs": [
        {
          "internalType": "uint256",
          "name": "_userUninvested",
          "type": "uint256"
        }
      ],
      "stateMutability": "view",
      "type": "function"
    },
    {
      "inputs": [],
      "name": "distToken",
      "outputs": [
        {
          "internalType": "address",
          "name": "",
          "type": "address"
        }
      ],
      "stateMutability": "view",
      "type": "function"
    },
    {
      "inputs": [],
      "name": "distribute",
      "outputs": [
        {
          "internalType": "bytes",
          "name": "_newCtx",
          "type": "bytes"
        }
      ],
      "stateMutability": "nonpayable",
      "type": "function"
    },
    {
      "inputs": [],
      "name": "lastDistAt",
      "outputs": [
        {
          "internalType": "uint256",
          "name": "",
          "type": "uint256"
        }
      ],
      "stateMutability": "view",
      "type": "function"
    },
    {
      "inputs": [],
      "name": "owner",
      "outputs": [
        {
          "internalType": "address",
          "name": "",
          "type": "address"
        }
      ],
      "stateMutability": "view",
      "type": "function"
    },
    {
      "inputs": [],
      "name": "renounceOwnership",
      "outputs": [],
      "stateMutability": "nonpayable",
      "type": "function"
    },
    {
      "inputs": [],
      "name": "streamToken",
      "outputs": [
        {
          "internalType": "address",
          "name": "",
          "type": "address"
        }
      ],
      "stateMutability": "view",
      "type": "function"
    },
    {
      "inputs": [
        {
          "internalType": "address",
          "name": "newOwner",
          "type": "address"
        }
      ],
      "name": "transferOwnership",
      "outputs": [],
      "stateMutability": "nonpayable",
      "type": "function"
    }
  ],
  "bytecode": "0x60c06040523480156200001157600080fd5b50604051620033e3380380620033e38339818101604052810190620000379190620006a6565b620000576200004b6200049260201b60201c565b6200049a60201b60201c565b600073ffffffffffffffffffffffffffffffffffffffff168573ffffffffffffffffffffffffffffffffffffffff1614158015620000c25750600073ffffffffffffffffffffffffffffffffffffffff168473ffffffffffffffffffffffffffffffffffffffff1614155b8015620000fc5750600073ffffffffffffffffffffffffffffffffffffffff168373ffffffffffffffffffffffffffffffffffffffff1614155b6200013e576040517f08c379a000000000000000000000000000000000000000000000000000000000815260040162000135906200078f565b60405180910390fd5b84600260006101000a81548173ffffffffffffffffffffffffffffffffffffffff021916908373ffffffffffffffffffffffffffffffffffffffff16021790555083600360006101000a81548173ffffffffffffffffffffffffffffffffffffffff021916908373ffffffffffffffffffffffffffffffffffffffff16021790555082600460006101000a81548173ffffffffffffffffffffffffffffffffffffffff021916908373ffffffffffffffffffffffffffffffffffffffff1602179055508173ffffffffffffffffffffffffffffffffffffffff1660808173ffffffffffffffffffffffffffffffffffffffff16815250508073ffffffffffffffffffffffffffffffffffffffff1660a08173ffffffffffffffffffffffffffffffffffffffff16815250506000600190508573ffffffffffffffffffffffffffffffffffffffff1663ad3915c8826040518263ffffffff1660e01b8152600401620002aa9190620007cc565b600060405180830381600087803b158015620002c557600080fd5b505af1158015620002da573d6000803e3d6000fd5b505050508573ffffffffffffffffffffffffffffffffffffffff166339255d5b8563d787840a60e01b8560008067ffffffffffffffff811115620003235762000322620007e9565b5b6040519080825280601f01601f191660200182016040528015620003565781602001600182028036833780820191505090505b506040516024016200036b9392919062000948565b604051602081830303815290604052907bffffffffffffffffffffffffffffffffffffffffffffffffffffffff19166020820180517bffffffffffffffffffffffffffffffffffffffffffffffffffffffff8381831617835250505050600067ffffffffffffffff811115620003e657620003e5620007e9565b5b6040519080825280601f01601f191660200182016040528015620004195781602001600182028036833780820191505090505b506040518463ffffffff1660e01b81526004016200043a93929190620009b1565b6000604051808303816000875af11580156200045a573d6000803e3d6000fd5b505050506040513d6000823e3d601f19601f8201168201806040525081019062000485919062000b0f565b5050505050505062000b60565b600033905090565b60008060009054906101000a900473ffffffffffffffffffffffffffffffffffffffff169050816000806101000a81548173ffffffffffffffffffffffffffffffffffffffff021916908373ffffffffffffffffffffffffffffffffffffffff1602179055508173ffffffffffffffffffffffffffffffffffffffff168173ffffffffffffffffffffffffffffffffffffffff167f8be0079c531659141344cd1fd0a4f28419497f9722a3daafe3b4186f6b6457e060405160405180910390a35050565b6000604051905090565b600080fd5b600080fd5b600073ffffffffffffffffffffffffffffffffffffffff82169050919050565b60006200059f8262000572565b9050919050565b6000620005b38262000592565b9050919050565b620005c581620005a6565b8114620005d157600080fd5b50565b600081519050620005e581620005ba565b92915050565b6000620005f88262000592565b9050919050565b6200060a81620005eb565b81146200061657600080fd5b50565b6000815190506200062a81620005ff565b92915050565b60006200063d8262000592565b9050919050565b6200064f8162000630565b81146200065b57600080fd5b50565b6000815190506200066f8162000644565b92915050565b620006808162000592565b81146200068c57600080fd5b50565b600081519050620006a08162000675565b92915050565b600080600080600060a08688031215620006c557620006c462000568565b5b6000620006d588828901620005d4565b9550506020620006e88882890162000619565b9450506040620006fb888289016200065e565b93505060606200070e888289016200068f565b925050608062000721888289016200068f565b9150509295509295909350565b600082825260208201905092915050565b7f534620706172616d7320696e76616c6964000000000000000000000000000000600082015250565b6000620007776011836200072e565b915062000784826200073f565b602082019050919050565b60006020820190508181036000830152620007aa8162000768565b9050919050565b6000819050919050565b620007c681620007b1565b82525050565b6000602082019050620007e36000830184620007bb565b92915050565b7f4e487b7100000000000000000000000000000000000000000000000000000000600052604160045260246000fd5b6000819050919050565b6000620008436200083d620008378462000572565b62000818565b62000572565b9050919050565b6000620008578262000822565b9050919050565b60006200086b826200084a565b9050919050565b6200087d816200085e565b82525050565b600063ffffffff82169050919050565b6200089e8162000883565b82525050565b600081519050919050565b600082825260208201905092915050565b60005b83811015620008e0578082015181840152602081019050620008c3565b83811115620008f0576000848401525b50505050565b6000601f19601f8301169050919050565b60006200091482620008a4565b620009208185620008af565b935062000932818560208601620008c0565b6200093d81620008f6565b840191505092915050565b60006060820190506200095f600083018662000872565b6200096e602083018562000893565b818103604083015262000982818462000907565b9050949350505050565b600062000999826200084a565b9050919050565b620009ab816200098c565b82525050565b6000606082019050620009c86000830186620009a0565b8181036020830152620009dc818562000907565b90508181036040830152620009f2818462000907565b9050949350505050565b600080fd5b600080fd5b62000a1182620008f6565b810181811067ffffffffffffffff8211171562000a335762000a32620007e9565b5b80604052505050565b600062000a486200055e565b905062000a56828262000a06565b919050565b600067ffffffffffffffff82111562000a795762000a78620007e9565b5b62000a8482620008f6565b9050602081019050919050565b600062000aa862000aa28462000a5b565b62000a3c565b90508281526020810184848401111562000ac75762000ac662000a01565b5b62000ad4848285620008c0565b509392505050565b600082601f83011262000af45762000af3620009fc565b5b815162000b0684826020860162000a91565b91505092915050565b60006020828403121562000b285762000b2762000568565b5b600082015167ffffffffffffffff81111562000b495762000b486200056d565b5b62000b578482850162000adc565b91505092915050565b60805160a05161283362000bb060003960008181610326015281816107a601528181610edd015261137901526000818161046e01528181610db50152818161103f01526112ce01526128336000f3fe608060405234801561001057600080fd5b50600436106100f55760003560e01c8063715018a611610097578063d86ed3e511610066578063d86ed3e51461029c578063e4fc6b6d146102cc578063f2fde38b146102ea578063f888d01a14610306576100f5565b8063715018a614610214578063884d1f401461021e5780638da5cb5b1461024e5780639c9d68b31461026c576100f5565b806339cba11f116100d357806339cba11f1461017857806353c11f99146101965780635f9e7d77146101c657806366c19efb146101f6576100f5565b80631b12fede146100fa578063230dbd291461011857806330d9c91514610148575b600080fd5b610102610324565b60405161010f91906116a5565b60405180910390f35b610132600480360381019061012d91906117d9565b610348565b60405161013f9190611961565b60405180910390f35b610162600480360381019061015d9190611983565b6103fd565b60405161016f9190611961565b60405180910390f35b61018061046c565b60405161018d91906116a5565b60405180910390f35b6101b060048036038101906101ab91906117d9565b610490565b6040516101bd9190611961565b60405180910390f35b6101e060048036038101906101db9190611983565b610545565b6040516101ed9190611961565b60405180910390f35b6101fe6105b3565b60405161020b9190611a58565b60405180910390f35b61021c6105b9565b005b61023860048036038101906102339190611983565b610641565b6040516102459190611961565b60405180910390f35b6102566106af565b60405161026391906116a5565b60405180910390f35b61028660048036038101906102819190611a73565b6106d8565b6040516102939190611a58565b60405180910390f35b6102b660048036038101906102b191906117d9565b610730565b6040516102c39190611961565b60405180910390f35b6102d46107a0565b6040516102e19190611961565b60405180910390f35b61030460048036038101906102ff9190611a73565b610b90565b005b61030e610c87565b60405161031b9190611abf565b60405180910390f35b7f000000000000000000000000000000000000000000000000000000000000000081565b6060610352610c8c565b61035c8a8a610d1e565b6103ee83838080601f016020809104026020016040519081016040528093929190818152602001838380828437600081840152601f19601f8201169050808301925050505050505086868080601f016020809104026020016040519081016040528093929190818152602001838380828437600081840152601f19601f82011690508083019250505050505050610f6f565b90509998505050505050505050565b6060610407610c8c565b6104118888610d1e565b600067ffffffffffffffff81111561042c5761042b611ada565b5b6040519080825280601f01601f19166020018201604052801561045e5781602001600182028036833780820191505090505b509050979650505050505050565b7f000000000000000000000000000000000000000000000000000000000000000081565b606061049a610c8c565b6104a48a8a610d1e565b61053683838080601f016020809104026020016040519081016040528093929190818152602001838380828437600081840152601f19601f8201169050808301925050505050505086868080601f016020809104026020016040519081016040528093929190818152602001838380828437600081840152601f19601f82011690508083019250505050505050610f6f565b90509998505050505050505050565b606061054f610c8c565b6105598888610d1e565b6105a683838080601f016020809104026020016040519081016040528093929190818152602001838380828437600081840152601f19601f820116905080830192505050505050506110e4565b9050979650505050505050565b60015481565b6105c16111bf565b73ffffffffffffffffffffffffffffffffffffffff166105df6106af565b73ffffffffffffffffffffffffffffffffffffffff1614610635576040517f08c379a000000000000000000000000000000000000000000000000000000000815260040161062c90611b66565b60405180910390fd5b61063f60006111c7565b565b606061064b610c8c565b6106558888610d1e565b6106a283838080601f016020809104026020016040519081016040528093929190818152602001838380828437600081840152601f19601f820116905080830192505050505050506110e4565b9050979650505050505050565b60008060009054906101000a900473ffffffffffffffffffffffffffffffffffffffff16905090565b60008060006106e68461128b565b915091506000816bffffffffffffffffffffffff169050600154831161070e57600154610710565b825b4261071b9190611bb5565b816107269190611be9565b9350505050919050565b606061073a610c8c565b6107448a8a610d1e565b61079183838080601f016020809104026020016040519081016040528093929190818152602001838380828437600081840152601f19601f82011690508083019250505050505050611373565b90509998505050505050505050565b606060007f000000000000000000000000000000000000000000000000000000000000000090506000600460009054906101000a900473ffffffffffffffffffffffffffffffffffffffff1673ffffffffffffffffffffffffffffffffffffffff1663899baaec833060008673ffffffffffffffffffffffffffffffffffffffff166370a08231306040518263ffffffff1660e01b815260040161084491906116a5565b602060405180830381865afa158015610861573d6000803e3d6000fd5b505050506040513d601f19601f820116820180604052508101906108859190611c6f565b6040518563ffffffff1660e01b81526004016108a49493929190611cfb565b6040805180830381865afa1580156108c0573d6000803e3d6000fd5b505050506040513d601f19601f820116820180604052508101906108e49190611d88565b509050808273ffffffffffffffffffffffffffffffffffffffff166370a08231306040518263ffffffff1660e01b815260040161092191906116a5565b602060405180830381865afa15801561093e573d6000803e3d6000fd5b505050506040513d601f19601f820116820180604052508101906109629190611c6f565b10156109a3576040517f08c379a000000000000000000000000000000000000000000000000000000000815260040161099a90611e14565b60405180910390fd5b600260009054906101000a900473ffffffffffffffffffffffffffffffffffffffff1673ffffffffffffffffffffffffffffffffffffffff166339255d5b600460009054906101000a900473ffffffffffffffffffffffffffffffffffffffff1663b96731c260e01b85600086600067ffffffffffffffff811115610a2b57610a2a611ada565b5b6040519080825280601f01601f191660200182016040528015610a5d5781602001600182028036833780820191505090505b50604051602401610a719493929190611e34565b604051602081830303815290604052907bffffffffffffffffffffffffffffffffffffffffffffffffffffffff19166020820180517bffffffffffffffffffffffffffffffffffffffffffffffffffffffff8381831617835250505050600067ffffffffffffffff811115610ae957610ae8611ada565b5b6040519080825280601f01601f191660200182016040528015610b1b5781602001600182028036833780820191505090505b506040518463ffffffff1660e01b8152600401610b3a93929190611ea1565b6000604051808303816000875af1158015610b59573d6000803e3d6000fd5b505050506040513d6000823e3d601f19601f82011682018060405250810190610b829190611fd8565b925042600181905550505090565b610b986111bf565b73ffffffffffffffffffffffffffffffffffffffff16610bb66106af565b73ffffffffffffffffffffffffffffffffffffffff1614610c0c576040517f08c379a0000000000000000000000000000000000000000000000000000000008152600401610c0390611b66565b60405180910390fd5b600073ffffffffffffffffffffffffffffffffffffffff168173ffffffffffffffffffffffffffffffffffffffff1603610c7b576040517f08c379a0000000000000000000000000000000000000000000000000000000008152600401610c7290612093565b60405180910390fd5b610c84816111c7565b50565b600081565b600260009054906101000a900473ffffffffffffffffffffffffffffffffffffffff1673ffffffffffffffffffffffffffffffffffffffff163373ffffffffffffffffffffffffffffffffffffffff1614610d1c576040517f08c379a0000000000000000000000000000000000000000000000000000000008152600401610d13906120ff565b60405180910390fd5b565b7fa9214cc96615e0085d3bb077758db69497dc2dce3b2b1e97bc93c3d18d83efd38173ffffffffffffffffffffffffffffffffffffffff16637730599e6040518163ffffffff1660e01b8152600401602060405180830381865afa158015610d8a573d6000803e3d6000fd5b505050506040513d601f19601f82011682018060405250810190610dae9190612134565b03610e46577f000000000000000000000000000000000000000000000000000000000000000073ffffffffffffffffffffffffffffffffffffffff168273ffffffffffffffffffffffffffffffffffffffff1614610e41576040517f08c379a0000000000000000000000000000000000000000000000000000000008152600401610e38906121ad565b60405180910390fd5b610f6b565b7f8aedc3b5d4bf031e11a7e2940f7251c005698405d58e02e1c247fed3b1b3a6748173ffffffffffffffffffffffffffffffffffffffff16637730599e6040518163ffffffff1660e01b8152600401602060405180830381865afa158015610eb2573d6000803e3d6000fd5b505050506040513d601f19601f82011682018060405250810190610ed69190612134565b03610f6a577f000000000000000000000000000000000000000000000000000000000000000073ffffffffffffffffffffffffffffffffffffffff168273ffffffffffffffffffffffffffffffffffffffff1614610f69576040517f08c379a0000000000000000000000000000000000000000000000000000000008152600401610f6090612219565b60405180910390fd5b5b5b5050565b60606000600260009054906101000a900473ffffffffffffffffffffffffffffffffffffffff1673ffffffffffffffffffffffffffffffffffffffff16633f6c923a856040518263ffffffff1660e01b8152600401610fce9190611961565b600060405180830381865afa158015610feb573d6000803e3d6000fd5b505050506040513d6000823e3d601f19601f820116820180604052508101906110149190612485565b6060015190506000838060200190518101906110309190611c6f565b905061103b85611373565b92507f000000000000000000000000000000000000000000000000000000000000000073ffffffffffffffffffffffffffffffffffffffff1663a9059cbb83836040518363ffffffff1660e01b81526004016110989291906124ce565b6020604051808303816000875af11580156110b7573d6000803e3d6000fd5b505050506040513d601f19601f820116820180604052508101906110db919061252f565b50505092915050565b60606000600260009054906101000a900473ffffffffffffffffffffffffffffffffffffffff1673ffffffffffffffffffffffffffffffffffffffff16633f6c923a846040518263ffffffff1660e01b81526004016111439190611961565b600060405180830381865afa158015611160573d6000803e3d6000fd5b505050506040513d6000823e3d601f19601f820116820180604052508101906111899190612485565b606001519050611198816106d8565b6040516020016111a89190611a58565b604051602081830303815290604052915050919050565b600033905090565b60008060009054906101000a900473ffffffffffffffffffffffffffffffffffffffff169050816000806101000a81548173ffffffffffffffffffffffffffffffffffffffff021916908373ffffffffffffffffffffffffffffffffffffffff1602179055508173ffffffffffffffffffffffffffffffffffffffff168173ffffffffffffffffffffffffffffffffffffffff167f8be0079c531659141344cd1fd0a4f28419497f9722a3daafe3b4186f6b6457e060405160405180910390a35050565b600080600360009054906101000a900473ffffffffffffffffffffffffffffffffffffffff1673ffffffffffffffffffffffffffffffffffffffff1663e6a1e8887f000000000000000000000000000000000000000000000000000000000000000085306040518463ffffffff1660e01b815260040161130d9392919061255c565b608060405180830381865afa15801561132a573d6000803e3d6000fd5b505050506040513d601f19601f8201168201806040525081019061134e91906125cc565b9050508092508193505050600081600b0b121561136e5761136d612633565b5b915091565b606060007f000000000000000000000000000000000000000000000000000000000000000090506000600260009054906101000a900473ffffffffffffffffffffffffffffffffffffffff1673ffffffffffffffffffffffffffffffffffffffff16633f6c923a856040518263ffffffff1660e01b81526004016113f79190611961565b600060405180830381865afa158015611414573d6000803e3d6000fd5b505050506040513d6000823e3d601f19601f8201168201806040525081019061143d9190612485565b606001519050600061144e8261128b565b9150506000816bffffffffffffffffffffffff169050600260009054906101000a900473ffffffffffffffffffffffffffffffffffffffff1673ffffffffffffffffffffffffffffffffffffffff16634329d293600460009054906101000a900473ffffffffffffffffffffffffffffffffffffffff1663232d2b5860e01b87600088633b9aca00886114e19190612691565b600067ffffffffffffffff8111156114fc576114fb611ada565b5b6040519080825280601f01601f19166020018201604052801561152e5781602001600182028036833780820191505090505b506040516024016115439594939291906126d1565b604051602081830303815290604052907bffffffffffffffffffffffffffffffffffffffffffffffffffffffff19166020820180517bffffffffffffffffffffffffffffffffffffffffffffffffffffffff8381831617835250505050600067ffffffffffffffff8111156115bb576115ba611ada565b5b6040519080825280601f01601f1916602001820160405280156115ed5781602001600182028036833780820191505090505b508a6040518563ffffffff1660e01b815260040161160e949392919061272b565b6000604051808303816000875af115801561162d573d6000803e3d6000fd5b505050506040513d6000823e3d601f19601f820116820180604052508101906116569190612785565b508095505050505050919050565b600073ffffffffffffffffffffffffffffffffffffffff82169050919050565b600061168f82611664565b9050919050565b61169f81611684565b82525050565b60006020820190506116ba6000830184611696565b92915050565b6000604051905090565b600080fd5b600080fd5b60006116df82611684565b9050919050565b6116ef816116d4565b81146116fa57600080fd5b50565b60008135905061170c816116e6565b92915050565b61171b81611684565b811461172657600080fd5b50565b60008135905061173881611712565b92915050565b6000819050919050565b6117518161173e565b811461175c57600080fd5b50565b60008135905061176e81611748565b92915050565b600080fd5b600080fd5b600080fd5b60008083601f84011261179957611798611774565b5b8235905067ffffffffffffffff8111156117b6576117b5611779565b5b6020830191508360018202830111156117d2576117d161177e565b5b9250929050565b600080600080600080600080600060c08a8c0312156117fb576117fa6116ca565b5b60006118098c828d016116fd565b995050602061181a8c828d01611729565b985050604061182b8c828d0161175f565b97505060608a013567ffffffffffffffff81111561184c5761184b6116cf565b5b6118588c828d01611783565b965096505060808a013567ffffffffffffffff81111561187b5761187a6116cf565b5b6118878c828d01611783565b945094505060a08a013567ffffffffffffffff8111156118aa576118a96116cf565b5b6118b68c828d01611783565b92509250509295985092959850929598565b600081519050919050565b600082825260208201905092915050565b60005b838110156119025780820151818401526020810190506118e7565b83811115611911576000848401525b50505050565b6000601f19601f8301169050919050565b6000611933826118c8565b61193d81856118d3565b935061194d8185602086016118e4565b61195681611917565b840191505092915050565b6000602082019050818103600083015261197b8184611928565b905092915050565b600080600080600080600060a0888a0312156119a2576119a16116ca565b5b60006119b08a828b016116fd565b97505060206119c18a828b01611729565b96505060406119d28a828b0161175f565b955050606088013567ffffffffffffffff8111156119f3576119f26116cf565b5b6119ff8a828b01611783565b9450945050608088013567ffffffffffffffff811115611a2257611a216116cf565b5b611a2e8a828b01611783565b925092505092959891949750929550565b6000819050919050565b611a5281611a3f565b82525050565b6000602082019050611a6d6000830184611a49565b92915050565b600060208284031215611a8957611a886116ca565b5b6000611a9784828501611729565b91505092915050565b600063ffffffff82169050919050565b611ab981611aa0565b82525050565b6000602082019050611ad46000830184611ab0565b92915050565b7f4e487b7100000000000000000000000000000000000000000000000000000000600052604160045260246000fd5b600082825260208201905092915050565b7f4f776e61626c653a2063616c6c6572206973206e6f7420746865206f776e6572600082015250565b6000611b50602083611b09565b9150611b5b82611b1a565b602082019050919050565b60006020820190508181036000830152611b7f81611b43565b9050919050565b7f4e487b7100000000000000000000000000000000000000000000000000000000600052601160045260246000fd5b6000611bc082611a3f565b9150611bcb83611a3f565b925082821015611bde57611bdd611b86565b5b828203905092915050565b6000611bf482611a3f565b9150611bff83611a3f565b9250817fffffffffffffffffffffffffffffffffffffffffffffffffffffffffffffffff0483118215151615611c3857611c37611b86565b5b828202905092915050565b611c4c81611a3f565b8114611c5757600080fd5b50565b600081519050611c6981611c43565b92915050565b600060208284031215611c8557611c846116ca565b5b6000611c9384828501611c5a565b91505092915050565b6000819050919050565b6000611cc1611cbc611cb784611664565b611c9c565b611664565b9050919050565b6000611cd382611ca6565b9050919050565b6000611ce582611cc8565b9050919050565b611cf581611cda565b82525050565b6000608082019050611d106000830187611cec565b611d1d6020830186611696565b611d2a6040830185611ab0565b611d376060830184611a49565b95945050505050565b60006fffffffffffffffffffffffffffffffff82169050919050565b611d6581611d40565b8114611d7057600080fd5b50565b600081519050611d8281611d5c565b92915050565b60008060408385031215611d9f57611d9e6116ca565b5b6000611dad85828601611c5a565b9250506020611dbe85828601611d73565b9150509250929050565b7f466c6f775368617265733a2021656e6f7567682064697374546f6b656e730000600082015250565b6000611dfe601e83611b09565b9150611e0982611dc8565b602082019050919050565b60006020820190508181036000830152611e2d81611df1565b9050919050565b6000608082019050611e496000830187611cec565b611e566020830186611ab0565b611e636040830185611a49565b8181036060830152611e758184611928565b905095945050505050565b6000611e8b82611cc8565b9050919050565b611e9b81611e80565b82525050565b6000606082019050611eb66000830186611e92565b8181036020830152611ec88185611928565b90508181036040830152611edc8184611928565b9050949350505050565b600080fd5b611ef482611917565b810181811067ffffffffffffffff82111715611f1357611f12611ada565b5b80604052505050565b6000611f266116c0565b9050611f328282611eeb565b919050565b600067ffffffffffffffff821115611f5257611f51611ada565b5b611f5b82611917565b9050602081019050919050565b6000611f7b611f7684611f37565b611f1c565b905082815260208101848484011115611f9757611f96611ee6565b5b611fa28482856118e4565b509392505050565b600082601f830112611fbf57611fbe611774565b5b8151611fcf848260208601611f68565b91505092915050565b600060208284031215611fee57611fed6116ca565b5b600082015167ffffffffffffffff81111561200c5761200b6116cf565b5b61201884828501611faa565b91505092915050565b7f4f776e61626c653a206e6577206f776e657220697320746865207a65726f206160008201527f6464726573730000000000000000000000000000000000000000000000000000602082015250565b600061207d602683611b09565b915061208882612021565b604082019050919050565b600060208201905081810360008301526120ac81612070565b9050919050565b7f466c6f775368617265733a204e6f7420686f7374000000000000000000000000600082015250565b60006120e9601483611b09565b91506120f4826120b3565b602082019050919050565b60006020820190508181036000830152612118816120dc565b9050919050565b60008151905061212e81611748565b92915050565b60006020828403121561214a576121496116ca565b5b60006121588482850161211f565b91505092915050565b7f466c6f775368617265733a204e6f742073747265616d20746f6b656e00000000600082015250565b6000612197601c83611b09565b91506121a282612161565b602082019050919050565b600060208201905081810360008301526121c68161218a565b9050919050565b7f466c6f775368617265733a204e6f74206469737420746f6b656e000000000000600082015250565b6000612203601a83611b09565b915061220e826121cd565b602082019050919050565b60006020820190508181036000830152612232816121f6565b9050919050565b600080fd5b600080fd5b600060ff82169050919050565b61225981612243565b811461226457600080fd5b50565b60008151905061227681612250565b92915050565b60008151905061228b81611712565b92915050565b60007fffffffff0000000000000000000000000000000000000000000000000000000082169050919050565b6122c681612291565b81146122d157600080fd5b50565b6000815190506122e3816122bd565b92915050565b6000819050919050565b6122fc816122e9565b811461230757600080fd5b50565b600081519050612319816122f3565b92915050565b600061232a82611684565b9050919050565b61233a8161231f565b811461234557600080fd5b50565b60008151905061235781612331565b92915050565b6000610160828403121561237457612373612239565b5b61237f610160611f1c565b9050600061238f84828501612267565b60008301525060206123a384828501612267565b60208301525060406123b784828501611c5a565b60408301525060606123cb8482850161227c565b60608301525060806123df848285016122d4565b60808301525060a082015167ffffffffffffffff8111156124035761240261223e565b5b61240f84828501611faa565b60a08301525060c061242384828501611c5a565b60c08301525060e061243784828501611c5a565b60e08301525061010061244c8482850161230a565b610100830152506101206124628482850161227c565b6101208301525061014061247884828501612348565b6101408301525092915050565b60006020828403121561249b5761249a6116ca565b5b600082015167ffffffffffffffff8111156124b9576124b86116cf565b5b6124c58482850161235d565b91505092915050565b60006040820190506124e36000830185611696565b6124f06020830184611a49565b9392505050565b60008115159050919050565b61250c816124f7565b811461251757600080fd5b50565b60008151905061252981612503565b92915050565b600060208284031215612545576125446116ca565b5b60006125538482850161251a565b91505092915050565b60006060820190506125716000830186611cec565b61257e6020830185611696565b61258b6040830184611696565b949350505050565b600081600b0b9050919050565b6125a981612593565b81146125b457600080fd5b50565b6000815190506125c6816125a0565b92915050565b600080600080608085870312156125e6576125e56116ca565b5b60006125f487828801611c5a565b9450506020612605878288016125b7565b935050604061261687828801611c5a565b925050606061262787828801611c5a565b91505092959194509250565b7f4e487b7100000000000000000000000000000000000000000000000000000000600052600160045260246000fd5b7f4e487b7100000000000000000000000000000000000000000000000000000000600052601260045260246000fd5b600061269c82611a3f565b91506126a783611a3f565b9250826126b7576126b6612662565b5b828204905092915050565b6126cb81611d40565b82525050565b600060a0820190506126e66000830188611cec565b6126f36020830187611ab0565b6127006040830186611696565b61270d60608301856126c2565b818103608083015261271f8184611928565b90509695505050505050565b60006080820190506127406000830187611e92565b81810360208301526127528186611928565b905081810360408301526127668185611928565b9050818103606083015261277a8184611928565b905095945050505050565b6000806040838503121561279c5761279b6116ca565b5b600083015167ffffffffffffffff8111156127ba576127b96116cf565b5b6127c685828601611faa565b925050602083015167ffffffffffffffff8111156127e7576127e66116cf565b5b6127f385828601611faa565b915050925092905056fea26469706673582212205ddbddcdd871f8416d718029312a4f15af881382af73f71a20abe0d6e265c20a64736f6c634300080d0033",
  "linkReferences": {},
  "deployedLinkReferences": {}
}